:020000025000AC
:10000000C81B042069310500FD9405005531050029
:1000100055310500553105005531050055310500B4
:10002000000000000000000000000000FD3205009C
:1000300055310500000000009532050055310500DE
:10004000DD340500DD340500DD340500DD34050058
:10005000DD340500DD340500DD340500DD34050048
:10006000DD340500DD340500DD340500DD34050038
:10007000DD340500DD340500DD340500DD34050028
:10008000DD340500DD340500DD340500DD34050018
:10009000DD340500DD340500DD340500DD34050008
:1000A000DD340500DD340500DD340500DD340500F8
:1000B000DD340500DD340500DD340500DD340500E8
:1000C000DD340500DD340500DD340500DD340500D8
:1000D000DD340500DD340500DD340500DD340500C8
:1000E000DD340500DD340500DD340500DD340500B8
:1000F000DD340500DD340500DD340500DD340500A8
:10010000DD340500DD340500DD340500DD34050097
:10011000DD340500DD340500DD340500DD34050087
:10012000DD340500DD340500DD340500DD34050077
:10013000DD340500DD340500DD340500DD34050067
:10014000DD340500DD340500DD340500DD34050057
:04015000DD34050095
:1001540081F0004102E000BF83F0004330B54FEA74
:1001640041044FEA430594EA050F08BF90EA020FE1
:100174001FBF54EA000C55EA020C7FEA645C7FEA74
:10018400655C00F0E2804FEA5454D4EB5555B8BF97
:100194006D420CDD2C4480EA020281EA030382EA08
:1001A400000083EA010180EA020281EA0303362D9A
:1001B40088BF30BD11F0004F4FEA01314FF4801C6D
:1001C4004CEA113102D0404261EB410113F0004F7F
:1001D4004FEA03334CEA133302D0524263EB430336
:1001E40094EA050F00F0A780A4F10104D5F1200ED4
:1001F4000DDB02FA0EFC22FA05F2801841F100012F
:1002040003FA0EF2801843FA05F359410EE0A5F102
:1002140020050EF1200E012A03FA0EFC28BF4CF033
:10022400020C43FA05F3C01851EBE37101F00045E9
:1002340007D54FF0000EDCF1000C7EEB00006EEBF6
:100244000101B1F5801F1BD3B1F5001F0CD3490880
:100254005FEA30004FEA3C0C04F101044FEA4452D7
:1002640012F5800F80F09A80BCF1004F08BF5FEA5E
:10027400500C50F1000041EB045141EA050130BD3E
:100284005FEA4C0C404141EB0101013C28BFB1F550
:10029400801FE9D291F0000F04BF01460020B1FA9B
:1002A40081F308BF2033A3F10B03B3F120020CDA6E
:1002B4000C3208DD02F1140CC2F10C0201FA0CF04C
:1002C40021FA02F10CE002F11402D8BFC2F1200CB1
:1002D40001FA02F120FA0CFCDCBF41EA0C01904067
:1002E400E41AA2BF01EB0451294330BD6FEA0404B0
:1002F4001F3C1CDA0C340EDC04F11404C4F120029B
:1003040020FA04F001FA02F340EA030021FA04F3AC
:1003140045EA030130BDC4F10C04C4F1200220FA03
:1003240002F001FA04F340EA0300294630BD21FA41
:1003340004F0294630BD94F0000F83F4801306BF07
:1003440081F480110134013D4EE77FEA645C18BFFB
:100354007FEA655C29D094EA050F08BF90EA020F92
:1003640005D054EA000C04BF1946104630BD91EA8A
:10037400030F1EBF0021002030BD5FEA545C05D18D
:100384004000494128BF41F0004130BD14F58004CC
:100394003CBF01F5801130BD01F0004545F0FE4140
:1003A40041F470014FF0000030BD7FEA645C1ABF75
:1003B400194610467FEA655C1CBF0B46024650EAAC
:1003C400013406BF52EA033591EA030F41F40021D8
:1003D40030BD00BF90F0000F04BF0021704730B55E
:1003E4004FF4806404F132044FF000054FF0000133
:1003F40050E700BF90F0000F04BF0021704730B5F4
:100404004FF4806404F1320410F0004548BF4042C8
:100414004FF000013EE700BF42004FEAE2014FEA1D
:1004240031014FEA02701FBF12F07F4393F07F4FF8
:1004340081F06051704732F07F4208BF704793F0FB
:100444007F4F04BF41F40021704730B54FF460740E
:1004540001F0004521F000411CE700BF50EA010211
:1004640008BF704730B54FF000050AE050EA0102BA
:1004740008BF704730B511F0004502D5404261EB2A
:1004840041014FF4806404F132045FEA915C3FF46B
:10049400D8AE4FF003025FEADC0C18BF03325FEA08
:1004A400DC0C18BF033202EBDC02C2F1200300FAB9
:1004B40003FC20FA02F001FA03FE40EA0E0021FADE
:1004C40002F11444BDE600BF80F0004002E000BF2A
:1004D40081F0004142001FBF5FEA410392EA030F2B
:1004E4007FEA226C7FEA236C6AD04FEA1262D2EB75
:1004F4001363C1BFD218414048404140B8BF5B427A
:10050400192B88BF704710F0004F40F4000020F012
:100514007F4018BF404211F0004F41F4000121F028
:100524007F4118BF494292EA030F3FD0A2F1010272
:1005340041FA03FC10EB0C00C3F1200301FA03F1B0
:1005440000F0004302D5494260EB4000B0F5000FD3
:1005540013D3B0F1807F06D340084FEA310102F192
:100564000102FE2A51D2B1F1004F40EBC25008BF44
:1005740020F0010040EA03007047490040EB00000E
:10058400013A28BFB0F5000FEDD2B0FA80FCACF10F
:10059400080CB2EB0C0200FA0CF0AABF00EBC2503C
:1005A40052421843BCBFD0401843704792F0000F2A
:1005B40081F4000106BF80F400000132013BB5E77D
:1005C4004FEA41037FEA226C18BF7FEA236C21D0F3
:1005D40092EA030F04D092F0000F08BF0846704758
:1005E40090EA010F1CBF0020704712F07F4F04D126
:1005F400400028BF40F00040704712F100723CBF39
:1006040000F50000704700F0004343F0FE4040F462
:10061400000070477FEA226216BF08467FEA236320
:100624000146420206BF5FEA412390EA010F40F40B
:10063400800070474FF0000304E000BF10F0004357
:1006440048BF40425FEA000C08BF704743F096433E
:1006540001464FF000001CE050EA010208BF704759
:100664004FF000030AE000BF50EA010208BF7047E0
:1006740011F0004302D5404261EB41015FEA010CF5
:1006840002BF84460146002043F0B64308BFA3F1ED
:100694008053A3F50003BCFA8CF2083AA3EBC253CF
:1006A40010DB01FA02FC634400FA02FCC2F12002EE
:1006B400BCF1004F20FA02F243EB020008BF20F025
:1006C4000100704702F1200201FA02FCC2F120028B
:1006D40050EA4C0021FA02F243EB020008BF20EA80
:1006E400DC7070474FF0FF0C1CEAD0521EBF1CEAAE
:1006F400D15392EA0C0F93EA0C0F6FD01A4480EA9C
:10070400010C400218BF5FEA41211ED04FF0006384
:1007140043EA501043EA5111A0FB01310CF00040B0
:10072400B1F5000F3EBF490041EAD3715B0040EAD6
:10073400010062F17F02FD2A1DD8B3F1004F40EBA6
:10074400C25008BF20F00100704790F0000F0CF079
:10075400004C08BF49024CEA502040EA51207F3A3D
:10076400C2BFD2F1FF0340EAC250704740F4000018
:100774004FF00003013A5DDC12F1190FDCBF00F009
:1007840000407047C2F10002410021FA02F1C2F1B7
:10079400200200FA02FC5FEA310040F1000053EA53
:1007A4004C0308BF20EADC70704792F0000F00F0A1
:1007B400004C02BF400010F4000F013AF9D040EAA7
:1007C4000C0093F0000F01F0004C02BF490011F43B
:1007D400000F013BF9D041EA0C018FE70CEAD15339
:1007E40092EA0C0F18BF93EA0C0F0AD030F0004CB9
:1007F40018BF31F0004CD8D180EA010000F000406D
:10080400704790F0000F17BF90F0004F084691F02A
:10081400000F91F0004F14D092EA0C0F01D1420264
:100824000FD193EA0C0F03D14B0218BF084608D12D
:1008340080EA010000F0004040F0FE4040F4000077
:10084400704740F0FE4040F4400070474FF0FF0C0A
:100854001CEAD0521EBF1CEAD15392EA0C0F93EA51
:100864000C0F69D0A2EB030280EA010C49024FEAA3
:10087400402037D04FF0805343EA111143EA10135C
:100884000CF000408B4238BF5B0042F17D024FF414
:10089400000C8B4224BF5B1A40EA0C00B3EB510FEF
:1008A40024BFA3EB510340EA5C00B3EB910F24BFD8
:1008B400A3EB910340EA9C00B3EBD10F24BFA3EB5D
:1008C400D10340EADC001B0118BF5FEA1C1CE0D125
:1008D400FD2A3FF650AF8B4240EBC25008BF20F0D8
:1008E400010070470CF0004C4CEA50207F32C2BF2C
:1008F400D2F1FF0340EAC250704740F400004FF0C9
:100904000003013A37E792F0000F00F0004C02BFF9
:10091400400010F4000F013AF9D040EA0C0093F0C3
:10092400000F01F0004C02BF490011F4000F013B1D
:10093400F9D041EA0C0195E70CEAD15392EA0C0F85
:1009440008D142027FF47DAF93EA0C0F7FF470AFBD
:10095400084676E793EA0C0F04D14B023FF44CAF00
:1009640008466EE730F0004C18BF31F0004CCAD195
:1009740030F000427FF45CAF31F000437FF43CAFD1
:100984005FE700BF7BB972B90029BEBF00204FF0FA
:10099400004106E008BF00281CBF6FF000414FF083
:1009A400FF3000F057B8ADF1080C6DE904CE002912
:1009B40009DB002B1ADB00F04FF8DDF804E0DDE979
:1009C400022304B07047404261EB4101002B1BDB62
:1009D40000F042F8DDF804E0DDE9022304B040420F
:1009E40061EB4101524263EB43037047524263EBB4
:1009F400430300F031F8DDF804E0DDE9022304B03C
:100A0400404261EB41017047524263EB430300F003
:100A140023F8DDF804E0DDE9022304B0524263EB7D
:100A24004303704753B94AB9002908BF00281CBFC3
:100A34004FF0FF314FF0FF3000F00CB8ADF1080C6F
:100A44006DE904CE00F008F8DDF804E0DDE90223E6
:100A540004B07047704700BF2DE9F04786468C46C6
:100A64000846089E154674461946002B40F0C1807E
:100A74008542B2FA82F245D94AB1C2F1200300FAA2
:100A840002FC954094402EFA03F343EA0C0C4FEA1F
:100A9400154EA8B2230CBCFBFEF80EFB18CC08FBC9
:100AA40000F943EA0C43994528D9EB1808F1FF37BC
:100AB40004D2994502D9A8F102072B44A3EB0903F8
:100AC400A4B2B3FBFEFC0EFB1C330CFB00F044EAA7
:100AD4000344A04214D92C190CF1FF3304D2A042D0
:100AE40002D9ACF102032C44241A43EA07401EB194
:100AF400D440002334607360BDE8F0874746DDE7E7
:100B04006346F1E792BB431B01214FEA154EAFB296
:100B1400200CB3FBFEFC0EFB1C330CFB07F840EA75
:100B24000343984561D9EB180CF1FF3004D2984582
:100B340002D9ACF102002B44A3EB0803A4B2B3FB2B
:100B4400FEFC0EFB1C330CFB07F744EA0344A742EC
:100B54004DD92C190CF1FF3304D2A74202D9ACF1C0
:100B640002032C44E41B43EA0040C0E7C2F1200323
:100B74009540944020FA03F12EFA03F34FEA154E00
:100B84009040AFB20343B1FBFEFC0EFB1C10190CEA
:100B94000CFB07F841EA0041884522D969180CF199
:100BA400FF3004D2884502D9ACF102002944A1EBFC
:100BB40008019BB2B1FBFEFC0EFB1C110CFB07F7FA
:100BC40043EA01439F420ED9EB180CF1FF3104D2E2
:100BD4009F4202D9ACF102012B44DB1B41EA0041E4
:100BE40093E76046E3E76146F7E76046A4E76346B8
:100BF400B8E7834206D916B9002108467CE7C6E95E
:100C040000E0F9E7B3FA83F78FB9834201D3724561
:100C140008D8BEEB020460EB030301209C461EB916
:100C2400002169E73846FAE7C6E9004CF8E7C7F15E
:100C3400200CBB400EFA07F522FA0CF42EFA0CF144
:100C4400BA401C4320FA0CF3B8404FEA144901435C
:100C54001FFA84FEB3FBF9F809FB18300B0C08FBF0
:100C64000EFA43EA00439A4540D9E31808F1FF30ED
:100C740004D29A4502D9A8F102002344A3EB0A0343
:100C840089B2B3FBF9F809FB183308FB0EFE41EAFD
:100C940003418E452CD9611808F1FF3304D28E45E7
:100CA40002D9A8F10203214443EA0040A1EB0E015A
:100CB400A0FB02984145CE46434602D306D14D459A
:100CC40004D20138B9EB020E68EB0403002EA7D05E
:100CD400B5EB0E0261EB030101FA0CFC22FA07F3F7
:100CE400F9404CEA0303C6E9003199E74046C5E7F9
:100CF4004346D9E7034613F8012B002AFBD1181AFF
:100D04000138704730B501258BB00DF10703CDE9EB
:100D1400061202930E4902ABCDE9043506AB8DF8F9
:100D24000700CDE9083551F8040B0395836804AA3C
:100D34001C6808ABA047041E08DA064A2346294665
:100D4400054808F058FB20460BB030BD0024FAE7F4
:100D54000000042050AD0500C0A6050030B587B0E2
:100D640001AB0293022301248DF805100C4900F015
:100D74007F00039302AB8DF80400049351F8040B35
:100D84000594836804AA1D680023A847031E04DA97
:100D9400044A2146044808F02EFB07B030BD00BFCA
:100DA4000000042074AD0500C0A605002DE9F04F35
:100DB40083B000AFDB4BDC4C1A460321204608F01D
:100DC40011FB03212046D94A08F00CFB391D0322EC
:100DD4008820FFF797FFDFF85893B7F805106D46A2
:100DE4008AB06A46A9F80010D2484FF0020A50614E
:100DF4004FF0050888204FF42356C2E9060A116211
:100E04002046314642F8108F07F045FEAD463220A9
:100E140007F044FE391D03228A20FFF773FFB7F958
:100E240005108AB06A46A9F80210C34811625061DD
:100E34008A203146C2E9060A42F8108F204607F09C
:100E44002AFEAD46322007F029FE391D03228C20EC
:100E5400FFF758FFB7F905108AB06A46A9F80410DD
:100E6400B648116250618C203146C2E9060A42F844
:100E7400108F204607F00FFEAD46322007F00EFE1D
:100E8400391D03228E20FFF73DFFB7F805108AB005
:100E94006A46A9F80610AA48116250618E203146AC
:100EA400C2E9060A42F8108F204607F0F4FDAD4669
:100EB400322007F0F3FD391D03229020FFF722FFB3
:100EC400B7F905108AB06A46A9F808109D4811625E
:100ED400506190203146C2E9060A42F8108F20463C
:100EE40007F0D9FDAD46322007F0D8FD391D0322A5
:100EF4009220FFF707FFB7F905108AB06A46A9F8F0
:100F04000A1091481162506192203146C2E9060AE2
:100F140042F8108F204607F0BEFDAD46322007F0A0
:100F2400BDFD391D03229420FFF7ECFEB7F905102F
:100F34008AB06A46A9F80C10844811625061942062
:100F44003146C2E9060A42F8108F204607F0A3FD95
:100F5400AD46322007F0A2FD391D03229620FFF78B
:100F6400D1FEB7F905108AB06A46A9F80E10784880
:100F74001162506196203146C2E9060A42F8108F88
:100F8400204607F088FDAD46322007F087FD391D65
:100F940003229820FFF7B6FEB7F905108AB06A4617
:100FA400A9F810106B481162506198203146C2E9CB
:100FB400060A42F8108F204607F06DFDAD46322038
:100FC40007F06CFD391D03229A20FFF79BFEB7F949
:100FD40005108AB06A46A9F812105F481162506180
:100FE4009A203146C2E9060A42F8108F204607F0DB
:100FF40052FDAD46322007F051FD391D03229C20DD
:10100400FFF780FEB7F905108AB06A46A9F81410F4
:101014005248116250619C203146C2E9060A42F8E6
:10102400108F204607F037FDAD46322007F036FD1D
:10103400391D03229E20FFF765FEB7F905108AB01B
:101044006A46A9F816104648116250619E2031463E
:10105400C2E9060A42F8108F204607F01CFDAD468F
:10106400322007F01BFD5246391DA120FFF74AFE2E
:1010740079798AB06A4689F818103A484FF0010B1A
:101084005061A1201162C2E9060B314642F8108F6B
:10109400204607F000FDAD46322007F0FFFC391D65
:1010A4000322E120FFF72EFEB7F905108AB06A4645
:1010B400A9F81A102C4811625061E1203146C2E9A6
:1010C400060A42F8108F204607F0E5FCAD463220B0
:1010D40007F0E4FC5246391DE320FFF713FE79794B
:1010E4008AB06A4689F81C10204811625061E320D6
:1010F4003146C2E9060B42F8108F204607F0CBFCBC
:10110400AD46322007F0CAFC391D0322E420FFF764
:10111400F9FDB9797A7901F00F0141EA02118AB037
:101124006A4625E092AD0500C0A60500D0AD0500D5
:10113400B00804200EAE050038AE050068AE050008
:1011440092AE0500BCAE0500E6AE050010AF05008A
:101154003AAF050064AF05008EAF0500B8AF0500D7
:10116400E2AF05000CB0050036B0050060B0050024
:10117400A9F81E10294811625061E4203146C2E9E1
:10118400060A42F8108F204607F085FCAD4632204F
:1011940007F084FC391D0322E520FFF7B3FD7979BC
:1011A400BA79090941EA02118AB06A46A9F82010FD
:1011B4001B4811625061E5203146C2E9060A42F833
:1011C400108F204607F067FCAD46322007F066FC1E
:1011D4005246391DE720FFF795FD97F905108AB0AF
:1011E4006A4689F822100F4811625061E72031469F
:1011F400C2E9060B204642F8108F07F04CFC32205F
:10120400AD4607F04BFC084B03211A46204608F074
:10121400E9F80C37BD46BDE8F08F00BF8AB0050081
:10122400B4B00500DEB0050092AD0500E1232DE960
:10123400F0478AB006AF8DF818303A460F2311787C
:10124400013B013113F0FF0302F8011FF7D1F22330
:1012540003AE8DF80C3032460B231178013B01317B
:1012640013F0FF0302F8011FF7D10321334A344876
:1012740008F0B8F80222D02002A9FFF743FD041EAB
:1012840009DA032123462F4A2D4808F0B4F82046F2
:101294000AB0BDE8F0879DF809302B4A82F8343053
:1012A40003212A4A26480093D02308F0AEF80A20E6
:1012B40007F0F4FB1025DFF894A0DFF8849017F80A
:1012C400018B0222404602A9FFF71CFD041ED8DB55
:1012D4009DF809300321524648460093434608F0DE
:1012E40094F8013D0A2007F0D9FB15F0FF05E6D17B
:1012F4000C25DFF85890DFF8488016F8017B0222AD
:10130400384602A9FFF7FEFC041EBADB9DF809303B
:1013140003214A46404600933B4608F076F8013DD7
:101324000A2007F0BBFB15F0FF05E6D10321084AAC
:10133400034808F057F82C46A9E700BF08B1050098
:10134400C0A6050047B10500B008042068B1050037
:1013540092AD05002DE9F04F93B0D34A00AF106869
:10136400516807F1300303C3127A01251A7007F19B
:1013740030033B61092307F11002CC49BA6107F13C
:101384003C02C7E908237B6107F12003C7E90A355A
:1013940051F8040BFD61836807F118021C6807F11A
:1013A4002803A047041E0ADAC14A23462946C14835
:1013B40008F021F820464C37BD46BDE8F08F97F879
:1013C4003E3097F83D201B0143EA023397F83F2053
:1013D40097F8416043EA1213FB6097F840303601F6
:1013E400B54C46EA033697F84230216B46EA1316A9
:1013F400B7F84330CD175BBAB1F5FA3145F1FF3593
:101404009BB2A1FB01C8BB6001FB05F3B4F908A0C2
:1014140008EB4308B4F90C304FEAEA727B600AFB2C
:1014240005F301FB0233AAFB012A53441B034FEAD1
:10143400023A43EA1253B4F90A20B4F910E002FB69
:1014440008FBD0170CFB00BBA2FB0C205844120A6B
:10145400B4F806B042EA006212EB0A02A2FB0B2ABD
:1014640043EB202303F500430BFB03AA4FEAEA7383
:101474004FEA6A0253EA6A0A4FF00000B4F90E9088
:1014840066D00EFB08F84FEAEE7A0CFB0A88AEFB36
:101494000CCE09FB05F5C6444FEAE97801FB085573
:1014A400A9FB01194D446D0445EAD135490411EBFA
:1014B4000C01D7F80CC04EEB0505CCF5801C411887
:1014C4000CF0004E78684EEA5C0E4FEACC7C05EBDB
:1014D400C005BCEB010040F63541A0FB010C6EEBEE
:1014E400050501FB05C1FFF74DFA8446B4F9162042
:1014F4004B1302FB03FE450B45EAC1454FEAE27874
:1015040005FB08E8A2FB052E5343C64405FB0E3336
:10151400A2FB05252B44520E42EAC3121518B4F956
:10152400142041EB636351434FEAE27E0EFB00114A
:10153400A2FB0C2C6144D20C42EA4132A81843EBC2
:10154400E143000A40EA0360B4F9123000EB0310EF
:101554002288B4F90210C2EB16135B435200C2EBAB
:10156400D6024A43B4F904101B134B439B1303EBF9
:10157400E223A3F59631236303EB8305B4F91E300C
:10158400BA681B05C3EB8233B4F9202094F922C056
:1015940001FB1233227F03F580434A4301FB0CF124
:1015A400D212891202F500424A43B4F91A10921277
:1015B40002F500124A4302F500529213DB1353431F
:1015C400DA135243217ED2114A43A3EB2213B3F11F
:1015D400C85FA8BF4FF0C85380354FEA23382D1297
:1015E4006562C4F82C80A062FFF724F84FF06E51B6
:1015F400FFF778F881464046FFF71CF84FF06A5130
:10160400FFF770F86C468AB08046EA462B4B2846B2
:10161400CAE90536FFF712F82949FFF717F900213F
:10162400FEF758FFFEF7F8FE55460626CAE90801FC
:1016340045F8106F2A464FF443511E4807F02BFA21
:10164400A546D5461F4B0021CAF81430FB6848460E
:10165400CAF81830FEF73EFFFEF7DEFE2A46CAE956
:101664000801CAF810604FF44351124807F013FA06
:10167400A546D546144B0021CAF81430BB68404631
:10168400CAF81830FEF726FFFEF7C6FE2A46CAE956
:101694000801CAF810604FF44351064807F0FBF9FB
:1016A400A546002486E600BF13B20500000004200E
:1016B40050AD0500C0A60500B008042080B10500A7
:1016C4000000C842AFB10500E0B1050010B52248E2
:1016D40008F0F6FA034630B9204A0121204807F001
:1016E4008AFE002010BD1F4C206808F0E9FA10B9EA
:1016F40000231D4AF1E7E06818B108F0E1FA002878
:10170400F6D0154C2269A1681368204623F04003E3
:1017140013600B684FF4202206219847FFF746FB1D
:101724000421F220FFF71AFB9321F420FFF716FBA4
:10173400FFF77CFD03210D4A094807F053FEFFF72C
:1017440009FEA368402120465B6998474FF47A70EC
:1017540007F0A4F9F3E700BF20A405001DB20500BB
:10176400C0A605000000042046B205006EB20500C4
:101774002DE9F04F91B0009302F004030293C2F3F9
:10178400C2030133840705460E46DDF868900392D0
:10179400059340F0BB81041D30B1072909D86FF0CF
:1017A4001B0011B0BDE8F08F01F00706341DC6F12F
:1017B4000806009B4FF000084FF0040A591E4FF032
:1017C400FF3347460193C3465346CDF810800DB10D
:1017D400009A22600598002800F3E8809848009A4F
:1017E400824203D397488242C0F0E080039AA4EB7C
:1017F400050E92074FEA9E0000F103810F2F00F2BD
:10180400B180002D00F0058107F140020DEB020CC0
:10181400019A0CF8200C0CF8102C04980130049058
:10182400E7E07A285DD84B280ED8472859D82928CC
:101834002DD8252852D054D820287AD02338D0F156
:10184400000B4BEB000B74E04C382E2849D8DFE832
:1018540000F07048484848484848484848484B4879
:101864004848484848484859484B4B595959704B7F
:101874006D487048184B184848827F4B48484B487D
:101884007F0000204FF0000B4FF0040A38E00122E3
:101894002A38C0B202FA00F010EA0E0F49D110F053
:1018A400625C2FD110EA020B43D06046013C5444E1
:1018B400B4FBFAF40AFB04F4002D61D0A3EB050C8D
:1018C400A4446645FFF46BAF002868D1042B47D1CC
:1018D40059F8043B2360042304342AE0019A013AB2
:1018E40001924FF0000B24E011F8010C6C2834D164
:1018F400002011F8023C83466C2BC5D14FF0080A36
:101904005346D3E709F1070929F00709073424F0FE
:101914000704F9E802AB35B106982044B0423FF61B
:101924003EAFC4E900AB4FF0000B08344FF0080A97
:10193400534611F8010F002878D0BBF1000F7FF453
:1019440070AF2528F5D14FF0010B019B01330193B2
:101954004FF0040AECE7584694E700208346A5E7D5
:10196400082B02D06FF015001BE709F1070929F0D5
:101974000709F9E80223C4E9002308230834D8E757
:1019840068B9042B02D109F10409A4E7082BE9D1B1
:1019940009F1070929F0070909F10809EDE7059A92
:1019A400013A059259F8042B009210E7039A900724
:1019B40020D54FF0010CA4EB050E4FEA9E00BEF5B6
:1019C400007FCFD20F2FCDD8F5B107F140020DEB38
:1019D400020E019AC0B20EF8200C0EF8102CBCF1C5
:1019E400000F3FF41AAF60F07F000EF8200C08F1EE
:1019F40001080137C5F108024FF6DA7E0434069275
:101A040097E74FF0000CDAE7BCF1000F01D0013684
:101A1400EFE7029802360028EBD10098CDE90631B1
:101A2400FFF768F9DDE906310644E2E7631BB3F525
:101A3400806F97D245B9A6F10804E018B1E600BF5B
:101A44009CA30500D0BD0500029A9B0828602B705A
:101A54009DF81030C2B1EB7085F80280B8F1000F28
:101A640005D0002208A8C5F1010C97420ED14FF011
:101A7400000AC5F101030DF1200901930DF1300BAA
:101A8400574512D1601B8CE66B70E5E710F8013BFB
:101A9400190608D504EB0C0E764503F07F03FFF41A
:101AA4007EAE04F8013B0132DFE7B8F1000F03D04A
:101AB40099F90020002A17DB029BD3B11AF80B20F6
:101AC40004F8012B0022019B981820448642FFF45D
:101AD40066AE99F80000009904F8010B20460392C1
:101AE40008F075FA039A14440AF1010A09F101098C
:101AF400C6E799F8002055F822300093029B00981D
:101B040045F82230FFF7F6F8421CDCE76FF00D00D1
:101B140047E600BF2DE9F04F95B000AFBB61BB6F46
:101B24000446C3F3C0038A4690F802B07A623B616C
:101B340041B9457800780BEB80002044554517D80F
:101B4400A0EB040AE3787B61BBF1000F02D0BB6F0A
:101B5400D80716D47B6953BB7B6A1BB15146204618
:101B6400BA699847554628465437BD46BDE8F08FB4
:101B7400461C3046FFF7BEF8013030440AF1010A32
:101B8400DCE7237862683B629B00FB603B6AFA6196
:101B940004EB83097B6A002B40F0FF80C8460026D3
:101BA400554609EB0B0AD04551D1D94413E0BB6F1C
:101BB4009907D1D5237899463B629B00FB60636803
:101BC40004EB8909FB617B6A002B7AD15546BBF192
:101BD400000F4FD15E46BB6F13F0050F0CBF4FF0E3
:101BE400020B4FF0010B7B6909EB430ABB6F03F057
:101BF40002037B62D145B6D019F8021B19F8013CE7
:101C040054F82380AB4B984502D3AB4B984538D35B
:101C14003B69002B42D0F86906F081FF00283DD0D3
:101C2400E8468AB06A46A54B5361FB69C2E90631AE
:101C34004FF400731384A24B42F8103F00234FF477
:101C44001251A04800F0FCFC023DC546D2E718F84A
:101C5400013B54F82300FFF74DF8FB6F01303BB113
:101C6400D7F880309E423EBFFB6F23F81600013642
:101C7400054498E7BB6F13F004061CBF7E6AD94481
:101C8400A9E73B6923B1F86906F049FF0028C7D1E9
:101C9400BB6FDA0705D4A5EB0B05ABE77B6A002B1A
:101CA400A8D04046FFF726F8FB6F43B1D7F8803041
:101CB4009E423FBFFA6F431C22F81630013605449A
:101CC40098E7BBF1000F6ED0BB6F13F004066DD024
:101CD400D846002607F140005A46494608F077F9ED
:101CE4007B69D9445B007B607B6909EB4303BB6080
:101CF400BB6F03F002033B60BB684B4558D1B96F1F
:101D04006378B86F890748BF002106EB030258BF08
:101D14004FEA5801C507D2B200F19A8010F0040FBF
:101D240014BF40460020FB616270A070E170204641
:101D3400BA69F9687B6A9847051EFFF614AF3B6AD7
:101D440041462370FB69BA6963707B6984F802B009
:101D5400E37007F140007B6A9847B0F10008C0F2D5
:101D6400A480FB68AAEB0B01C91A7B684846C91A10
:101D7400BA697B6A98470028C0F299804FF0000B3B
:101D8400A84408EB000507F1300AB34562D30021EB
:101D9400BA6908467B6A9847E5E65E464FF0000854
:101DA40007F1300098E75E46D84699E7B04697E7D2
:101DB40019F8021B3F4B19F8015C54F825009842AE
:101DC40002D33D4B98421DD33B6923B1F86906F019
:101DD400A6FE002890D13B68FBB908F1280307F15F
:101DE400280208F1010003EB020C07F1500308F18B
:101DF400020853FA80F00CF8101C5FFA88F800F817
:101E0400105C79E73B692BB1F86906F088FE00287D
:101E14007FF472AFBB6FDB0709D506F1280307F126
:101E24002802711C9E1806F8205CCEB264E7BB6FD2
:101E340058077FF561AF08F1280307F1280208F17C
:101E4400010103EB020808F8105C5FFA81F853E71C
:101E5400002068E71BF80A3054F8239087F82F30E5
:101E6400FB6FFBB133F81B800121BA697B6A07F170
:101E74002F00984700281ADB0544B8F1000F06D15B
:101E84004846FEF737FF00F101081FFA88F841467B
:101E94004846BA697B6A9847002808DB05440BF179
:101EA400010B72E7D7F87C80DEE745465BE6054622
:101EB40059E600BF9CA30500D0BD0500BAB20500D9
:101EC40004000001C8A60500014B1860704700BF5C
:101ED4001800042080B505460E461746984605F0BE
:101EE400ABFA034608F04EFA0446DFF8189042466F
:101EF40049F8003039463046A84754F8090001F043
:101F040099F900BF080000002DE9F047058B04464D
:101F14002807904611D4022905F0070540F0CD802A
:101F2400204606F099FE78B10138218B042811D897
:101F3400DFE800F0C3106D85950001290CBF45F062
:101F4400100545F02005258388F31188BFF36F8FB2
:101F5400BDE8F08701F0070AAA4500F0A680002733
:101F6400B9463E46A368002B00F0BD8041F008014D
:101F7400218388F31188BFF36F8FA168002900F0D3
:101F8400BB800D68002900F0B780334652462046D6
:101F9400D1F80480C047002D76D02B6829461D4611
:101FA400F0E701F007035A1F012A1BD8002221F091
:101FB4000701062B276889B2C4E9002209D13B46F0
:101FC40003E0628B013262831B68002BF9D141F07C
:101FD40002012046218306F03FFE00287BD041F019
:101FE400200177E0042B0AD121F0070189B22046B1
:101FF400218306F031FE10B141F020012183218BB1
:1020040001F0070AAA4550D00027B946AAE7236978
:1020140021F0070141F00601062DD3F80090218339
:102024002DD1B9F1000F40D041F00801218388F38C
:102034001188BFF36F8F20463949C84729E021F042
:102044000701236941F0040189B2042DD3F80490F7
:102054002183E6D000274FF0040A3E4682E721F0B0
:102064000701236941F0050189B2052DD3F80890D1
:102074002183D6D000274FF0050A3E4672E7002799
:102084004FF0060A3E466DE72B4687E7B9F1000F8D
:10209400D1D14FF02003EFF3118883F31288BFF3FB
:1020A4006F8F238B23F008032383258BEA062ED519
:1020B40025F01003238305F007056669218B002EA4
:1020C400BFF66FAF00232768C4E9003321F007018E
:1020D40041F001012183218B4FF0000901F0070A2F
:1020E400AA457FF43FAF002F9BD041F00801218324
:1020F40088F31188BFF36F8F002FC7D03D6839462E
:1021040033465246204606F0D3FD2F46F4E7AB068D
:102114007FF51AAF25F02003238305F00705FFE6BA
:10212400E18C05002DE9F047044607464FF001090C
:10213400DFF8508014B93846BDE8F08794FAA4F566
:10214400B5FA85F509FA05F32E0108EB05156FEAD2
:10215400030A24EA03042B7B002BEBD058F8063047
:102164001B694BB94644736804222846196807EA78
:102174000A0700F051FADDE7284698470028D9D12C
:10218400F0E700BF28A7050030B5002289B00F4949
:102194000F4807F0F3FE002200230024CDE90623B4
:1021A4000E230C4DCDE903344FF440722846CDE99B
:1021B4000144094B0949009404F0A8FD0849284644
:1021C40007F09CFD204609B030BD00BFE9210500A1
:1021D40028070420A0020420C1240500880B042041
:1021E4006EB30500014804F009BE00BF900204204C
:1021F4002DE9F04780461F480F4607F071F8064660
:10220400002830D000252846BDE8F087237B73B131
:102214002368DB680BB12046984723681B69D3B950
:10222400636804222046196800F0F6F90136103478
:102234004C45EBD3B8F1000FE5D0002DE2D0284691
:10224400FFF770FF0546002FF7D000214FF4A4706C
:1022540005F0D8F8F1E7204698470028E0D00AFABC
:1022640006F31D43E2E705464FF0010A024CDFF88E
:102274000C90DDE7F808042028A7050038A705001E
:10228400014B53F820007047ECA9050008B503463C
:1022940008462BB1044A136000F072FC002008BD0C
:1022A4006FF01500FBE700BF1C00042010B5044CC0
:1022B400237813B9034804F0A1FD0123237010BD52
:1022C4005C0B04209002042010B50446064807F075
:1022D40007F83CB1054BD3E8EF1F0139C3E8E21F0F
:1022E400002AF8D110BD00BFF0080420F40804202F
:1022F40000200146034BD3E8EF0FC3E8E21F002A96
:10230400F9D17047F008042070B5FFF7F1FF0546D6
:10231400074C084EB44200D370BD63685B792BB19F
:1023240023685B6813B12946204698471034F1E7C7
:1023340028A7050038A7050010B5044C0449204619
:1023440006F05FFE034B1C6010BD00BF5402042066
:10235400D8A90500E808042008B50023074A4FF46B
:1023640000411370064A07481360074A1360FFF7D9
:102374008DFFBDE80840FFF7DFBF00BF5D0B042001
:10238400F0080420E1920500F4080420014600222C
:102394000023014806F056BE54020420014806F00A
:1023A400EFBE00BF54020420024B0146186806F039
:1023B40039BF00BFE8080420014806F06FBF00BF22
:1023C4005402042070B5264B1878002847D0FFF734
:1023D400E5FF054670B1234BD3E8EF1F0139C3E88D
:1023E400E21F002AF8D1204C204EB4422DD32846B7
:1023F400FFF7DAFF1E4B1F4C1B68002B19DD07F09B
:10240400BBFD4FF47A72A0FB020302FB0131C30B44
:1024140043EA4143D4E900209B1A40F2E9324FEAEF
:10242400D13161EB0001934271F1000101D3FFF757
:102434006BFFD4E9003213F57A7342F10002C4E968
:102444000032BDE87040FFF7B7BF63685B7923B122
:102454002368294620461B6898471034C5E770BD99
:102464005C0B0420F408042028A7050038A7050005
:10247400F00804202007042070B50D4D297861B9B7
:102484000120FFF7B5FE0B4C0B4EB44206D3FFF709
:1024940099FF0028FBD101232B7070BD63685B7921
:1024A4001BB1236820469B6898471034EDE700BFB2
:1024B4005D0B042028A7050038A7050000212DE99D
:1024C400F0470846FFF794FE044658B340F26768A5
:1024D4004FF0000907F056FF1B4B1C4A1B581360B2
:1024E40033B11B4B1B68092B02DD1A4804F086FC30
:1024F4000025194FDFF85CA044B12046FFF712FE17
:10250400044618B94FF0FF384FF0FF39FFF75AFF70
:10251400064628B9B5B942464B46504604F092FCEB
:102524003546E9E74FF0FF384FF0FF39D2E72B6823
:102534009B691BB100222846114698471035BD42BD
:10254400F5D3E8E7054DFAE708000000EC0804209D
:10255400F40804209002042038A7050028A70500E9
:1025640013B5184806F0BCFE174B1B787BB14FF02F
:102574002003EFF3118483F31288BFF36F8FFFF707
:1025840021FF84F31188BFF36F8F02B010BD0F4B8E
:102594001B68002BF9D050B9002200230C48CDE968
:1025A40000234FF40042002305F018F9EDE7092851
:1025B400EBD1074807F0EEFC064802B0BDE8104036
:1025C40004F01CBCF40804205D0B0420EC08042077
:1025D400280704209002042010B5064B04461B680B
:1025E40098472146A060044806F0AAFDBDE81040C3
:1025F400FFF7B6BF1C00042054020420044A054B14
:102604009B1AB1EBD30F34BF52F83100002070474E
:10261400C0A6050028A70500084B10B4C31A4468D7
:102624001B110133237143689A71012243681960B5
:1026340043685A7110BCFFF739BE00BF28A70500D4
:102644002DE9F04F8FB0C1F34A2804AF0D469146EF
:10265400B8607B600C0DB8F1000F63D000264FF01A
:10266400040B4FF00A0A07F11403C7F80C80C7E9FA
:1026740007667E620193CDF808B0CDF800A007F19B
:102684001C0332464846F968FFF744FAB0F5006F78
:1026940003461CD36C468AB0D9F8041004AB264810
:1026A4001A46C3E9050140F2FF71D9614FF4007184
:1026B4001984224B42F8103F4FF4125133462048FC
:1026C400FFF7BEFFA5462C37BD46BDE8F08FC0F32B
:1026D4000A0804F11700184420F0070080083B6042
:1026E400FFF754FE68F35325044690B13B6800F1AC
:1026F4001001C7E9083607F11403F961CDE900A315
:10270400CDF808B048460F4AF96807F11C03FFF7F3
:1027140001FA68F353252A4620467B68B96806F017
:1027240011FED0E704F1170020F007008008FFF73E
:102734002DFE0446EDE700BF83B30500040000014D
:10274400D8A605001D9305002DE9F04F87B0044677
:10275400DDE9105ADDE912690F4693469846A6B39F
:102764001021334652460020CDF80090CDF8149045
:10277400FEF7FEFF014605F117000844144B04F070
:1027840007040BF0070BE40020F0070003EA4123E1
:1027940044EA8B1480081C430391FFF7F7FD44EAD5
:1027A4000554054640B13EB1334652460399CDF82F
:1027B40000901030FEF7DCFF434622463946284697
:1027C40007B0BDE8F04F06F0BDBD3146D3E700BF0A
:1027D40000FE0F000EB403B503AB53F8042B0146FF
:1027E4000448019301F09CF802B05DF804EB03B0D7
:1027F400704700BF5B940500CA0605D48B064CBF26
:1028040002490349FFF7E6BF704700BFC3B30500A1
:10281400C2B305002DE9F04F89B09B46DDE9167679
:102824009DF84C3004460493DDE914930593049B0E
:102834000D460692002B00F0878006F008030793EC
:1028440006F068FD06F0020A024600284BD0204636
:102854008549FFF7BFFF8046BAF1000F08D016F094
:10286400440F42D12A4620468049FFF7B3FF8044F3
:1028740006F001035BB17E4B049A204653F82220F4
:102884007C4B7D49002A08BF1A46FFF7A3FF06F0D8
:102894000803002B55D0794B049A204653F8222084
:1028A4007749FFF797FF0546069B2BB11A4620464A
:1028B4007449FFF78FFF0544BBF1000F05D05A465A
:1028C40020467149FFF786FF05444544B9F1000FDE
:1028D40049D1002F4FD1F30700F1C0803146204683
:1028E400FFF78AFFB4E08046B6E7684B1868002813
:1028F400BDD0674B4FF47A7E1B684FF46162B5FB21
:10290400F3F5B5FBF0F300FB13550EFB05F5B3FB34
:10291400F2FAB5FBF0FC3C2102FB1A3200FB1C5519
:10292400B2FBF1F30EFB05F5B5FBF0F501FB132249
:1029340020460092CDE901C552465649FFF74AFFA9
:1029440095E706F00805AFE7BBF1010F06D1B9F131
:10295400000F64D1002F7BD000250CE0B9F1000FEB
:10296400F8D04D485CE04D484B4622464C4906F0B1
:10297400A5F8002F68D0DFF82C91DFF82CA1102FD8
:1029840031462046B8464FF0000B28BF4FF01008E0
:10299400FFF732FF5D4545DC059B514620461A781A
:1029A400FFF718FF4FF0010B1BF0070F03D1494647
:1029B4002046FFF70FFFD8453BD9059B51462046DB
:1029C40013F80B20FFF706FF0BF1010BBBF1100FFF
:1029D400EAD14FF0000B20463449FFF7FBFE5A467C
:1029E400059B20469A5CA2F120015F2928BF2E2274
:1029F4002F49FFF7EFFE0BF1010BBBF1100F1DD0B8
:102A04001BF0070F03D149462046FFF7E3FED845E4
:102A14005A46E5D849462046FFF7DCFEEBE71F4857
:102A2400049DA1E749462046FFF7D4FE0BF1010BB4
:102A3400B0E720461F49FFF7CDFEC5E7059BB7EB7E
:102A44000807434405939AD1049B002B7FF443AFBA
:102A5400204609B0BDE8F04F06F0F0BC2046054A18
:102A64000549FFF7B7FE39E7CAB30500CEB3050041
:102A7400FCA90500C5B3050090BB050010AA05001C
:102A8400F3B30500F9B30500FDB305000009042004
:102A9400FC080420D7B30500899405005B94050065
:102AA400253905000AB4050002B405000CB405007C
:102AB4000EB4050008B405002DE9F0410F884B68F9
:102AC40005460C4690468E6886B0C7F382175BB104
:102AD400144A9B1A43F3CF01002920DB2078C0F36A
:102AE400C200FFF78BFD0346214651F8102B608886
:102AF400C2F34A22002A01EB020408BF002100228B
:102B0400C0F30B10CDE90408CDE902142846314680
:102B140001970092FFF77EFE06B0BDE8F081002326
:102B2400E2E700BFC0A6050042F20F7373B58B4203
:102B340028BF0B4605680446052168460D4A04F083
:102B44008DFE0646636828460B225B680A4906F038
:102B540068FC63683246694628465B6806F061FC97
:102B640063681B2228465B68044906F05AFC02B0DD
:102B740070BD00BF65B105002DB4050011B405009A
:102B840000210123064A904206D8064A01B90123CE
:102B94001360054B18607047012140085B00F2E7A1
:102BA40040420F00FC08042000090420F8B50D463B
:102BB4000446064F4618B44201D12846F8BD14F81D
:102BC400011BBB6801485B689847F4E748A405000B
:102BD400014B03600020704758AA05002DE9F04717
:102BE40080460C4600AF002936D0D1E90012E946F0
:102BF4008AB06D46A3684FF0050A2E461A48C5E907
:102C04000723C5E9050146F810AF002332464FF407
:102C140021511648FFF714FDD4E90312CD46636928
:102C2400AD461348C5E90723C5E90501C5F810A059
:102C3400002332464FF421510C48FFF701FDCD46E5
:102C4400E36901210B4A094806F0D5FBA369012178
:102C5400094A064806F0CFFB2146404603F0AAFE87
:102C6400BD46BDE8F08700BF73B4050000A70500AA
:102C7400A2B40500D1B40500E0B4050030BFFFF7ED
:102C8400FDBF00BF114B124A2DE9F041D518013D9B
:102C9400B5FBF3F5DFF83C805D430F4B074608EBCB
:102CA4000304013CB4FBF3F403FB04540E1B304651
:102CB4000A4907F08CF9701942460021083E07F0D2
:102CC40093F93E6704F10800BDE8F08101000000BB
:102CD40000000000040000000400000038A7050004
:102CE400044B99685869884203D003494FF08052D5
:102CF4000A6070472C0B042004ED00E070B52A4CE8
:102D040006460D4629482A4906F0FDFBA36ADB0660
:102D140047D52648274906F0F6FB1120A36A1C076D
:102D240004D52248244906F0EEFB12201E4CA36A67
:102D3400990712D521491D4806F0E5FB636BA26A89
:102D4400120609D501211E4A184806F054FB1EB18B
:102D5400A36A23F08003A3621320134CA36ADE0743
:102D640004D51248174906F0CEFB1420A36A9C062A
:102D740004D50E48144906F0C6FB15200A4B9A6A7E
:102D8400D10658BF9A6A9A6A920642BF5A6A22F4D6
:102D940000525A629A6A42F0FF029A6200232B7030
:102DA40070BD1020BAE700BF00ED00E000A70500E9
:102DB4000EB5050024B5050057B505006AB5050034
:102DC40082B5050098B50500B7B5050010B5244CCB
:102DD4002449254806F097FBA36A99013ED5224869
:102DE400224906F090FB1E20A36ADA0104D51E488E
:102DF4001F4906F088FB1F20194CA36ADB0204D587
:102E040019481C4906F07FFB0220A36A1C0304D561
:102E14001548194906F077FB2120114CA36A590380
:102E240004D51148154906F06EFB2220A36A9A03C3
:102E340004D50D48124906F066FB2320084CA36A0A
:102E4400DB0304D508480F4906F05DFB2420A36A80
:102E54006FEA03436FEA1343A36210BD1D20C3E767
:102E640000ED00E0E6B5050000A70500FEB505008D
:102E740011B605002BB6050055B6050073B605005E
:102E840098B60500B2B6050070B5294C06460D4645
:102E94002848294906F037FBA36AD9043CD52548BC
:102EA400264906F030FB1720A36A1A0504D52148E9
:102EB400234906F028FB18201D4CA36A9B0512D554
:102EC4001C48204906F01FFBA36BA26A100409D515
:102ED40001211D4A174806F08EFA1EB1A36A23F495
:102EE4000043A3621920124CA36A590504D5114862
:102EF400164906F008FB1A20A36ADA050ED50D4818
:102F0400134906F000FB1B20094A936A43F47F43EC
:102F1400936200232B7070BD1620C5E7A36A9B043F
:102F2400F2D504480B4906F0EEFA1C20ECE700BF8A
:102F340000ED00E000A70500DDB60500F3B60500CE
:102F440057B5050004B705001DB7050032B70500E5
:102F54004DB70500B7B505002DE9F0478AB0694BB8
:102F64000446D3F804A089461646002500AFCAF3E8
:102F7400080885F31188BFF36F8F02F07F43B3F124
:102F84007F4F1ED1D3071CD4500603D4110708D495
:102F9400012508E05C495D4806F0B5FA16F0040620
:102FA40000D04C4600250023FB71A8F10303092B34
:102FB40000F28680DFE803F0077C7F7984848484D0
:102FC40084822C46EFE75249504806F09CFA0023CD
:102FD4004C4EFB71F36A9A0705D54E494B4806F0EF
:102FE40092FA002329E0F36A002B01DA4A49F5E753
:102FF400F36A5B00F5D54949444806F084FA7369DD
:10300400A26943F480737361BFF34F8FBFF36F8F73
:10301400736932F8022C23F480737361BFF34F8F0A
:10302400BFF36F8F4DF602739A4228D123680121B2
:103034003B4A364806F0DFF92368FA79DAB907F132
:10304400080604F1200C324620686168083403C283
:1030540064451646F7D17A6A002D4ED0C2F30801B2
:1030640021B96FEA52226FEA42227A62184607F1C6
:103074000801FFF7B3FD2837BD46BDE8F087B36A02
:10308400DBB22BB10120F91DFFF738FE0346D4E76C
:10309400B36A13F47F4F04D00120F91DFFF7F4FE47
:1030A400F4E7B36AB3F5803F9BD3FFF78FFEEDE7F8
:1030B4000020F91DE8E70020F91DEFE719498DE725
:1030C400194A6E461AF4F87F8AB0184B18BF134693
:1030D4006A461749C2E90513A8F11003D3614FF4F6
:1030E40000731384134B42F8103F00234FF4115123
:1030F4000648FFF7A5FAB54673E722F4FF7222F0FB
:103104000102B2E700ED00E093B7050000A7050057
:10311400B6B70500CDB70500EEB70500FCB705004E
:103124001BB8050037B805007AB7050065B7050078
:103134005BB8050004000001044B5A6942F0100218
:103144005A615A6942F480625A61704700ED00E0A6
:10315400EFF30880EFF3098101B57246FFF7FCFE37
:1031640001BD00BF002080F31488BFF36F8F0020DF
:1031740080F30A8880F30B8800F034FD00200E49A8
:103184000860BFF34F8F0D4880F3088800F02CF8D7
:10319400202080F311880A484FF40061401880F31E
:1031A4000988EFF314800221084380F31488BFF3E5
:1031B4006F8F00F0F7F8000094ED00E0C81B0420C6
:1031C400880E0420002318460649D1F89020C2F343
:1031D4000722934200DB7047C1F89830C1F8A00081
:1031E4000133F6E700ED00E010B572B6002484F375
:1031F4001388FFF7E7FF23464FF0FF300C4A03F133
:1032040020010133102B42F82100F8D100234FF0A4
:10321400FF30074A03F160010133102B42F821000B
:10322400F8D162B6BFF34F8FBFF36F8F10BD00BFED
:1032340000E100E0084B9B6883420BD1EFF3058368
:1032440043B1064B5A6842F080525A605A6A22F4DB
:1032540000425A6206F055BE2C0B042000ED00E03B
:103264006FF00A01084A93689967084958674B68E0
:1032740043F080534B60002383F31188BFF36F8FB7
:103284009368986F704700BF2C0B042000ED00E09A
:1032940016498A684FF030001044EFF3098C80E837
:1032A400F01F202080F31288BFF36F8F104F4FF070
:1032B40000664A698A603E604FF070041419206801
:1032C4000C4C2060506F0023536780F3118802F187
:1032D400300090E8F01F8CF3098802F1000004B577
:1032E40006F019F9BDE80440704700002C0B0420D7
:1032F40004ED00E0280904201EF0040F0CBFEFF3D6
:103304000880EFF30980816911F8021C0229FFD0BB
:1033140001B506F0EDF801BD40B2002807DB01233A
:103324004109034A00F01F00834042F821307047EE
:1033340000E100E040B200280CDB01220649430909
:1033440000F01F008240203341F82320BFF34F8F49
:10335400BFF36F8F704700BF00E100E0054B4209E7
:1033640053F82220012300F01F0003FA00F010405C
:10337400704700BF00E100E040B2002801F1010104
:10338400ACBF00F16040064B4FEA4111C9B2ABBF7C
:1033940000F5614000F00F0080F8001319547047E5
:1033A40014ED00E00B4A08B50B4B22F07F029A6043
:1033B400BFF34F8FBFF36F8FD3F8882022F47002CE
:1033C400C3F8882003F0AAFB04F03CF800F078F876
:1033D40003F0EEFB0000050000ED00E042F8203CA5
:1033E400009B0B4942F81C3C019B21F0010142F86F
:1033F400183C029B42F8081C42F8143C4FF08073BE
:1034040042F8043C0023203A02654367704700BF3A
:10341400D91E05000A4B046F98600A4B1C60036EAA
:1034240083F30B88104681F30988002163B681F386
:103434001188BFF36F8F00220023FEF74BFD00BFFE
:103444002C0B042028090420014910220A6070472B
:1034540010ED00E072B6404080F31188BFF36F8F27
:1034640001B500F0BBFA00280AD0BFF34F8F30BF7C
:1034740000BF00BF00BF00BF00BF00BF00BF00BF50
:10348400BDE8014062B6BFF36F8F704772B6494022
:1034940081F3118801B500F0A1FA00280AD0BFF326
:1034A4004F8F20BF00BF00BF00BF00BF00BF00BFE1
:1034B40000BF00BFBDE8014080F3118862B67047C9
:1034C400002320210348C2180133452B82F800133E
:1034D400F9D1704700E100E001B5EFF30580A0F1F8
:1034E40010004FEAC0000449014409C99847BDE8E7
:1034F400014002490847000098A40500E52C050096
:103504001FB5094C094A23460121094800F00AF96C
:1035140000230393074B0121E41A01A801930294A9
:1035240000F00AF904B010BD0000072000000420D8
:1035340058AA0500A002042010B50C7A0B6804F008
:103544001F0223F01F031A43CB68640923F01F03EF
:10355400054943EA440343F00103C1F89800C1F864
:103564009C20C1F8A03010BD00ED00E0072810B584
:1035740008D901210346054A054805F03CFF6FF0D0
:10358400150010BDFFF7D8FFFBE700BF72B80500B8
:10359400F8A605002DE9F04F8946144606464FF07B
:1035A4000008514D85B0C84527DAD6F804A0BAF111
:1035B400000F44D0BAF11F0F17D91AF01F0F14D1FE
:1035C400D6F800B01BF01F0F0FD1584605F0A7FF27
:1035D40007460AEB0B00013805F0A1FF874210D023
:1035E4006FF01507414A3B4601E04346404A01213A
:1035F400404805F000FF6FF01504204605B0BDE813
:10360400F08F17F1160FEDD0BC42EBDDC5F89870C2
:10361400D5F89C10C5F89870D5F8A03021F01F019A
:1036240043F01F0BD6E900321A44994202F1FF3AE3
:103634001DD1D34507D13146F8B205F079FF08F121
:1036440001080C36AFE73146C5F89870D5F89C30C0
:1036540022F01F0203F01F031343C5F89C30E0B2AD
:1036640005F066FF10F1160FC5D0441CE7E7C5F856
:103674009870D5F8A020013B23F01F0302F01F022D
:103684001343D3453146E0B2C5F8A030E8D005F085
:103694004FFF10F1160FAED0C5F89870D5F89C20E6
:1036A4009DF808300BF1FF3B62F304038DF80830FA
:1036B400D5F8A0309DF808205B0863F347128DF815
:1036C4000820D6E900321344009323F01F035B441F
:1036D400A3EB0A03013023F01F036946C0B203932E
:1036E400FFF744FFBEE700BF00ED00E0BBB80500F4
:1036F40098B80500F8A605000522044BC3F89420E9
:10370400BFF34F8FBFF36F8F704700BF00ED00E032
:10371400BFF35F8F0022024BC3F89420704700BFB1
:1037240000ED00E010B5034C2278FFF733FF207062
:1037340010BD00BF5F0B04202DE9F74F294D8A46C9
:1037440006464FF00008AB46274FD0451BDAD6F8A3
:103754000490B9F1000F3FD031680846019105F09B
:10376400DEFE0199044609EB0100013805F0D7FE9D
:1037740084424FF014021D4B08D002FB08F36FF093
:1037840015024BF8032003B0BDE8F08F14F1160FB7
:103794002C60F8D01978A142F5DD02FB08B0C7F817
:1037A4009840C7F89840D7F89C4000F10801007B86
:1037B40064F304000871D7F8A0000C79400860F3A2
:1037C40047140C71D7F89C1021F01F016960D7F8D9
:1037D400A01021F01F01296108F1010814350C36ED
:1037E400B3E700BF2C09042000ED00E05F0B0420C8
:1037F400F0B53A4D87B02C68082C6CD80020FFF740
:1038040087FF374B374AC3F8C02084420DD1364D69
:1038140001A82C70FFF7DCF900240646334FA642BA
:103824000AD1FFF769FF002053E0696801EB00113A
:10383400FFF782FE0130E8E70199200101EB041350
:10384400DA683A40B2F5001F22D0B2F5800F2CD0CE
:10385400B2F5801F36D15A689B680958013B22F0A3
:103864001F0003440120844623F01F0340EA4C1048
:10387400CDE902218DF8100002A928780593FFF7FD
:1038840075FE002823DB2B78013401332B70C6E747
:103894005A689B680958013B22F01F0003444FF00B
:1038A400020C012023F01F03E0E75A689B680958C3
:1038B400013B22F01F0003444FF0000C062023F0CC
:1038C4001F03D3E701210A4A0A4805F08BFD6FF074
:1038D400150007B0F0BD4FF0FF30FAE764AA050009
:1038E40000ED00E0AAFF44005F0B04200000F0FF9D
:1038F400DEB80500F8A6050008B5024B1B6898471A
:10390400002008BD40090420034B044A1860937842
:1039140043F00203937070474009042028000420F8
:10392400F0B587B007460E461446002110226846BB
:103934001D4606F059FB02238DF80230054B2A463A
:1039440021466846CDE90476019304F04DF807B0AA
:10395400F0BD00BF6795050008B50649064821F08B
:103964000701C1F1005202F5E02205F038F9002008
:1039740008BD00BFCF1B04204409042007B50DF186
:10398400070006F03CF8114B98421CD14FF48062BA
:103994000F4B1049C3F8B8254FF40062C3F83C2517
:1039A4009DF8070006F017F80B499DF8070006F08C
:1039B4000DF801209DF80730984001F01DFE00200D
:1039C40003B05DF804FB6FF00B00F9E70000AD0BEA
:1039D40000A002402CA0024028A10240052370B59B
:1039E400144D154E2C780134B4FBF3F303EB83032D
:1039F400E41A05F0E3FF114A137823B156F8243092
:103A0400C01A072813D90E4BD3F8141141B1002161
:103A1400C3F81411D3F814312C700CB901231370AA
:103A24002C7805F0CBFF46F82400012070BD00205F
:103A3400FCE700BF610B042050090420600B042044
:103A44000050004048B1054B054A1B68B3FBF2F334
:103A54005843044B43F00103184770472C010420DA
:103A640040420F0040A7050070B5049CC4F307262C
:103A7400304601F08BFBE5B20146284605F0B7FF5E
:103A840000220120074BA40B04F0FC041A51A840A7
:103A940001F0B8FD304601F02DFD2846BDE8704028
:103AA40001F052BF80A0024073B501A801F046FFA7
:103AB400264B984247D101F0FFFC041E0ADA9DF818
:103AC400040001F041FF01212346214A214805F069
:103AD40092FC35E040F607031F4D8DF80540AE68B3
:103AE400ADF806307468019B14B96FF05704EAE727
:103AF40008212846194AA047041EE4DB3369002B39
:103B0400F3D00122082128469847041EDBDB01205C
:103B14009DF80430984001F06FFD9DF805009DF874
:103B240004509DF8076005F034FF0146284605F06F
:103B340052FF0B4BB60045F000459D51002CC2D1FD
:103B4400204602B070BD6FF01204BCE70000AD0B5C
:103B540013B9050018A705005CA40500693B05001E
:103B640080A102402DE9F341144683681B690BB11F
:103B740000229847C4F30726304601F00FFB0546A0
:103B8400304605F006FF4FF00008E7B2014638461C
:103B940005F031FF104B220E920043F802803046AC
:103BA40001F0F4FA0D4A4FEA943C0CF0FC0C47F097
:103BB400004342F80C300146384605F007FF084B35
:103BC40005F132020093304643460194520005F059
:103BD400E9FE02B0BDE8F08180A1024080A002406D
:103BE4006D3A050005F0EEBE084B70B5C31A0D46DC
:103BF40007499B10044659434022064805F0E3FC5C
:103C04002B4601462046BDE8704018477809042039
:103C1400B76DDBB60CA40500402373B50B4C0093C1
:103C2400041B0B460D460A49A41061430646094A83
:103C3400094805F0F4FC011E05DA30462B4602B0B3
:103C4400BDE87040184702B070BD00BF7809042079
:103C5400B76DDBB68D9605000CA405002DE9F8437D
:103C64000022012106460520FFF786FB114801F0DA
:103C74007BFD114B984219D101F086FD00244FF0D1
:103C84001C090C27DFF834803569414609FB0450D0
:103C940005F032F8002807DB012307FB04551C4418
:103CA400042CAB67F0D10020BDE8F8836FF004006A
:103CB400FAE700BFF93C05000000AD0B8CAA050033
:103CC40001460C2300224B4370B50848C4187833CE
:103CD4001844D4E91C56226705F062FC2DB1324623
:103CE4002B46BDE870400248184770BD780904208F
:103CF4000CA40500062812D8DFE800F0040F111107
:103D0400110D0B00064B986F10F0070007D1FFF759
:103D1400D7BF0220FBE70320F9E70120F7E770474C
:103D24007809042008B54FF02003EFF3118183F3E1
:103D34001288BFF36F8F114A136843F002001060BA
:103D4400DA0708D481F31188BFF36F8FBDE8084008
:103D5400012001F031BD0A4BD3F80C24D3F80C3404
:103D6400DB07EFD5074805F01BFC81F31188BFF38F
:103D74006F8FBDE808400020FFF7A2BF180A042097
:103D840000500040F00904201FB500220123CDE9B2
:103D940002236B46084ACDF800D0CDF804D005F0D4
:103DA4006CFC002805DB4FF480420023684603F0D6
:103DB40049F805B05DF804FBC396050010B54FF053
:103DC4002003EFF3118483F31288BFF36F8F074A44
:103DD400136823F00201DB07116002D4012005F00F
:103DE40010FE84F31188BFF36F8F10BD180A0420EE
:103DF4002DE9F041012207463549D1E8EF3FC1E8FA
:103E0400E02F0028F9D133B9324933484B60CB60F5
:103E14008A6004F084FF7B1E012B28D8012F06D171
:103E24002E4BD3F81C3403F00303022B1FD005F0F0
:103E34005FFF0546E8B92A4B1B78D3B10222064638
:103E4400264BC3F80823254CDFF89880D4F81824AF
:103E5400D4F81834D20316D503F00303022B01D08F
:103E6400012F10D175B386F31188BFF36F8FBDE8AE
:103E7400F0814FF02003EFF3118683F31288BFF330
:103E84006F8F0125DFE7C5B13046FFF7FFFAD4F89D
:103E94001835DBB2012BD9D1D4F80421002AD5D0AE
:103EA4000022C4F80421D4F804210222C4F81825FD
:103EB4002022C8F88021A360C8E70021212003F054
:103EC400A1FAE4E70222054BC3F80423CFE700BFBD
:103ED400740904206409042094090420005000405B
:103EE400840B042000E100E008B5074805F0E8FE73
:103EF40038B10648FFF708FD0448FDF7E5FF002048
:103F040008BD6FF01200FBE748A40500153F05004B
:103F14000A2838B50446074D04D1AB680D2128465C
:103F24005B689847AB6803485B68E1B298472046F2
:103F340038BD00BF48A40500F0B5406801F01F0477
:103F4400057B87B044EA45140569002D63D0B2F5BA
:103F5400001F00F1100506D12146284605F003FE96
:103F6400002007B0F0BD0027B2F5800F01AE019725
:103F7400776039D1B3F1007F14BF052304238DF892
:103F840004300023CDE904630393836823FA01F129
:103F940011F001011AD1B2F1A07F17D104F01F036F
:103FA400620903F180032AD0012A3AD11E4A52F849
:103FB4002330DB070AD40DF1030632462146284696
:103FC40002F06AF8194B98421BD002962146284603
:103FD40003AA01F0C1FE164B98421FD101222146CB
:103FE400284602F0DDF8BBE7B3F1C06F05D0B3F1AA
:103FF400007F14BF01230223C1E70323BFE70D4A57
:10400400D5E73146284602F0BFF8094B9842DCD088
:104014006FF00B00A5E76FF08500A2E76FF01500C5
:104024009FE751F82330FFDE002884400400AD0BE5
:104034000000AD0B0025844038B545682B69B3B149
:104044001035284602F086F8044680B90146284611
:1040540002F040F8084B98420BD122462846074903
:1040640002F00CF8224605212F20FFF785F90020E5
:1040740038BD6FF00400FBE70000AD0B8540050080
:104084004209034670B502D0012A17D070BD0D4E07
:10409400326951680029F9D0012503F01F030C6827
:1040A4009D400029F2D08A682A4002D030464B68ED
:1040B40098472CB1236821461C46F2E7024EE7E7F5
:1040C4002346F8E734A4050020A405002DE9F043B5
:1040D40040F206354668D00648BF0320337B02EA27
:1040E400050558BFC2F3401087B001F01F07B5F5AE
:1040F400837F144647EA43178DF8030043D00FD853
:10410400062D18D007D8B5B1022D3ED06FF015009A
:1041140007B0BDE8F083B5F5807FF7D101250AE04B
:1041240040F20222954232D0B5F5407F31D0B5F548
:10413400007FEBD1022522032DD5012372688B4029
:104144009360326982BB07F01F037F092AD0012FD5
:1041540077D13E4A02EB830284F48033D2F8001212
:10416400C3F30043C4F3404444EA430421F47061BC
:1041740044EA800421F00F0144EA05230B43C2F80A
:1041840000320020C4E70725D5E70425D3E7052539
:10419400D1E70325CFE7630341BF012372688B4056
:1041A400D360CEE72A4AD5E71036394630460DF1BA
:1041B400020201F071FF14F4403F80460CD13946ED
:1041C400304605F0CEFC234B9845DAD130469DF8B5
:1041D400021001F0CDFFD4E74FF0000901AB3946DE
:1041E400304603AACDE90439CDE90199CDF80C9004
:1041F40001F0B2FD174B984288D114F4003315D066
:104204009DF8033084F48034C4F300448DF80E30F8
:1042140039464B46304603AA8DF80C508DF80D40B4
:1042240001F090FE0B4B9842CDD06FE7CDE90433FB
:1042340039460DF10303304603AA039301F08CFDC4
:10424400F0E7803352F82330FFDE00BF00288440BB
:10425400002584400000AD0B10B504460269A2B0ED
:10426400C2F880001F49002001F0F2FF0022012162
:104274002A20FFF781F864688422002101A805F050
:10428400B3FE6368B3F5803F04D30221164A17488E
:1042940005F0A8F82368B3F5803F04D30221144A3B
:1042A400124805F09FF800230120219301AA6168B8
:1042B4000432D940C90744BF00FA03F142F8041C90
:1042C4002168D940C90748BF00FA03F103F101038B
:1042D40048BFD163102BEAD101A801F0D1FF00201F
:1042E40022B010BDD143050096B90500F0A6050023
:1042F400C2B9050038B50F290C4605693CD8436896
:104304001B68CB40DB0737D5D5F88430CB4003F0AE
:1043140001031AB9EBB96FF077002CE0002BFAD146
:1043240055F8213023B90221154A164805F05AF8E8
:10433400D5F8843013B92A20FEF7EEFF0122D5F810
:104344008430A2401343C5F88430E0B201F0B8FFD2
:104354000AE0C8B201F0BCFF0122D5F88430A240C3
:1043640023EA0203C5F88430D5F8843013B92A202F
:10437400FEF7E0FF002038BD6FF01500FBE700BF3B
:10438400EEB90500F0A6050038B505460C4622B185
:1043940002210C4A0C4805F025F80F2C0ED86B6846
:1043A4005B68E340DB0709D501230020A400E4B2E5
:1043B40004F1804404F52834236038BD6FF01500FF
:1043C400FBE700BF1EBA0500F0A6050070B5D1F8E2
:1043D40080600F2804460D46736803D81B68C340E9
:1043E400DA0704D402210E4A0E4804F0FBFFD5F884
:1043F4008430E340DB0704D402210B4A094804F06B
:10440400F1FF05EB840255F824503DB121463046B6
:10441400AC46BDE870400023126C604770BD00BF1D
:1044240039BA0500F0A6050055BA0500036803F083
:104434001F025B09026004D0012B034818BF00204F
:1044440070470248704700BF00288440002584401C
:104454002DE9F04F15460646DFF87091DFF870A19C
:1044640085B000EB8101B14203D1002005B0BDE865
:10447400F08F3368C3F34322082A03F07F0400F269
:104484009E807F2C4FEA134308BF4FF0FF3419F886
:104494000280222B00F29680DFE803F012214B64A5
:1044A4004E5464949494949494949494949494947E
:1044B4009494677174779494947A808386898C0039
:1044C400C5F80C45631C3BD0012703A80394FFF7F0
:1044D400ADFF039BBB4607FA03F3836006E0C5F810
:1044E4001445621C2CD000274FF0000B336803A83E
:1044F40003F40052002A1CBF01274FF0000B019364
:104504000394FFF793FF039A019B00EB8200D0F81A
:104514000022C3F3C1144FEA082343EA840343EAA5
:104524000B0302EA0A02134343EA4703C0F80032CA
:1045340006E0C5F80845C5E7631CC5F808453CD145
:10454400043690E7671CC5F80C45F9D001274FF0F5
:10455400010B03A80394FFF769FF039B0BFA03F312
:10456400C360C3E7C5F81045BBE7C5F86045601CE8
:104574003368E5D0C3F38033002BE7D0A4E7C5F854
:104584006445F4E7C5F86845F1E7C5F86C45EEE71E
:10459400C5F82445621CD3D00127A5E7C5F82845F2
:1045A40090E7C5F83045F5E7C5F83445F2E7C5F8B6
:1045B4003845EFE7C5F83C4584E70027C7E76FF0C7
:1045C400150053E76FF0850050E700BF8BBA050074
:1045D400F0F0FCFF2DE9F74306464FF000080022F7
:1045E40001210820FEF7C8FE0820FEF795FE776833
:1045F40035693C684146C4F800852E60D7F80C90B4
:1046040001AA484605F0BDF800283FDB019BD9F814
:10461400002019791868FFF71BFF002836DB6B7A36
:10462400D6F810C0012B03D0032B2DD14FF0100866
:10463400AB7A032B28D195F80BE0BEF1000F02D022
:10464400BEF1010F20D1297A012922D0022924D0D8
:10465400D1B90A466B687068B3F5164F006800F06C
:10466400898037D8B3F5165F00F087801FD8B3F57B
:10467400966F00F0848012D8B3F5967F00F08280A4
:10468400B3F5167F00F081806FF0850003B0BDE8BC
:10469400F0834FF480720E21DCE70022FBE7B3F5D0
:1046A400166F75D0B3F5965FEED15E4B3EE0B3F571
:1046B400E14F70D007D8B3F5615F6ED0B3F5964F74
:1046C400E2D1594B32E047F612294B45DCD14FF485
:1046D40000032BE0B3F5613F61D013D8B3F5963FE7
:1046E40060D009D84DF6C0294B455DD0B3F5614F74
:1046F400CAD14FF46B0319E0B3F5E13FC4D14FF0D5
:10470400EB7313E0B3F5612F51D009D8DFF81C9196
:104714004B454FD0B3F5E12FB6D14FF0E86305E038
:10472400DFF80C914B45AFD14FF08053C0F82435DE
:10473400736848EA01081B6842EA0E0242EA08026A
:10474400C3F86C250CF10403D5E9010183E80300E7
:104754007B6899073DD505F1180001F0EFF8354B5A
:1047640098422AD034480121344A04F03BFE6FF0C9
:1047740004008BE74FF41D03D8E7314BD6E74FF421
:104784009E23D3E74FF4A033D0E74FF41C33CDE797
:104794004FF41D23CAE72B4BC8E72B4BC6E74FF05A
:1047A4006C73C3E7294BC1E74FF46503BEE74FF0D1
:1047B4007063BBE74FF08063B8E7287E04F10C0216
:1047C40004F5907105F00CF901202B7E984000F05F
:1047D40013FF0823C4F800353B7A53B9C4F81031E9
:1047E400D4F810316B69C4F834350123C4F8383572
:1047F40023607B6800209A075CBF4FF48073C4F881
:1048040004337B68DB0644BF4FF48003C4F80433ED
:104814002B69C4F844350123C4F84805A360E36058
:1048240034E700BF00B0130000A04E0090D0030096
:1048340040420F000000AD0B20A7050094BA05000C
:104844000050270000C0750000F03A0000903A01C3
:10485400F8B504460D46076905F04AFAB0B92E4B7F
:104864001B789BB16426606804F0B9FF00BB01208B
:1048740005F0AAF8013EF6D10021212002F0C2FD84
:10488400F0E786F31188BFF36F8FF5E74FF020034D
:10489400EFF3118683F31288BFF36F8F606831469C
:1048A40004F09DFF90B986F31188BFF36F8FEDE795
:1048B4004FF02003EFF3118683F31288BFF36F8F59
:1048C4006068314604F08BFF0028DAD03B691D7024
:1048D400626838691368C3F844050120C3F84805C1
:1048E4000020C3F82001D3F82051C3F858015268BE
:1048F400D3F85801D20608D5082062681268C2F8B5
:1049040000054FF48002C3F8042301229A6081F366
:104914001188BFF36F8FF8BD840B04202DE9F04399
:1049240083B0456800AFD5F83C8006690021404655
:104934003A1D04F026FF041E1ADB7B68D8F8002019
:1049440019791868FFF784FD041E11DB296C481CD3
:104954001BD005F1440000F07FFB10F1130F044657
:104964000BD10121304A314804F082FF6FF0120468
:1049740020460C37BD46BDE8F083411D05D1012119
:104984002B4A2A4804F074FFF2E74FF001086B6BDE
:104994009847B568D6E9023203EBC2039D4204D3BB
:1049A400304604F098FF0024E2E7286805F088F90F
:1049B4000346B0B92A686C468AB0106829796A46F9
:1049C400D1614FF400711B4D11841B49C2E905509C
:1049D40042F8101F4FF411511448FDF731FEA5465B
:1049E400C4E728682979EB88D0F810C0DA07DCF826
:1049F400004054BF43F4B01383F4D01323F4801263
:104A040008FA01FEDB07D0F808904CBF44EA0E0414
:104A140024EA0E04CCF80040D9F800309847041E6C
:104A2400A6DB0835B6E700BFCDBA050010A7050020
:104A3400F8BA050015BB0500040000012DE9FF418B
:104A440005690746D0F80480A86C2B6D00283AD17C
:104A54006BB3B8F838406A6C9C4228BF1C46EE6CB5
:104A6400EB6C53B1296D41B106F06041B1F1005FC7
:104A740003D0082C28BF08246E6E00926A6CAC65C3
:104A84001AB1AA6C002A18BF2246CDE901261BB12F
:104A94002B6D002B18BF2346002269464046039322
:104AA40001F0B6FE184B98420AD06FF004033C693B
:104AB400236304F1200002F0A1F9002384F85C30A0
:104AC40004B0BDE8F081696CEE6C0A46B8F8384071
:104AD400ABB1834228BF03469C4228BF1C46002931
:104AE400BED001F06043B3F1005FB9D0082C28BFF9
:104AF4000824286E224605F06AFA2A6EB0E784423A
:104B040028BF0446EBE700BF0000AD0B38B50278C0
:104B140003460C4662B98D6D5DB94B6D1C696FF02F
:104B24007303236304F1200002F068F984F85C50F5
:104B340038BDC86C48B10A6D3AB1DB682BB19842F4
:104B440003D02A46496E05F042FAA36CA26D33B134
:104B54009A4213D90121224A224804F089FE236D86
:104B6400A26D33B19A4222D901211D4A1D4804F095
:104B74007FFE606DBDE83840FFF760BF9B1AA364F9
:104B84007BB9636B04F1480208336363A36B04F1DC
:104B94003801013BA36304F1340004F075FE606442
:104BA400DDE7636C002BDAD013446364D7E79B1A08
:104BB40023657BB9E36B04F150020833E363236C90
:104BC40004F14001013B236404F13C0004F05CFE69
:104BD400E064CEE7E36C002BCBD01344E364C8E776
:104BE40039BB050010A705002DE9F04F8FB000AFC9
:104BF400C7E90232436889467B608B888046990402
:104C0400046932D44FF0FF324FF0FF3304F1100047
:104C140002F018F9C4F80490D8F810A0D8F804B039
:104C24009AF85D30DBF808C023B1DAF80030994512
:104C340000F02381B9F804E01EF400631CD00121C4
:104C44006F4A704804F014FE6FF0850523689B8852
:104C540013F4005304D1636004F1100002F0CEF8A1
:104C640028463C37BD46BDE8F08FA369002BC9D167
:104C740063689945C6D1CFE71EF0010F16D06D4683
:104C840088B0D8F800106A465F48C2E905014FF4BD
:104C9400007191835D4942F8101F4FF4E251594865
:104CA400FDF7CEFCAD466FF01505CFE71EF0080FFB
:104CB40005D0574A0121534804F0DAFDF3E7CEF357
:104CC4004513082B01D0534AF4E7D9F800303B6070
:104CD4003A68514B9A4201D8504AEBE7504B9C45F5
:104CE40006D9504AD2F8582512F0030F18BF9C4633
:104CF40007F110050BF10C060FCE0FC50FCE0FC533
:104D04003B6896E80300634528BF63469C46464BD0
:104D140085E803009C4517D2414B9C4514D2434B74
:104D24009C4511D2424B9C4550D8424B9C454FD890
:104D3400414B9C454ED8414B9C454DD84049414B35
:104D4400414A8C4588BF13461EF0020F7B620EF069
:104D5400040343D0002B14BF0323022387F8283015
:104D6400CEF3001387F82930DBF800301EF0020F71
:104D7400D3F80835CEF340014FEA531203F01F0372
:104D840032D17AB3012A40F03B813049012202FA40
:104D940003F3CB609AF85D302BB1584601F0F0FC78
:104DA40000238AF85D305346294A584607F110011A
:104DB40001F0B2FC274A0346904259D00121264A09
:104DC400104804F018FB6FF004053FE7234BBBE7E2
:104DD400234BB9E7234BB7E7234BB5E7003B18BF99
:104DE4000123BBE72149D1E742B1012A40F00A81FE
:104DF4001649012202FA03F38B60CBE71B49F8E75B
:104E040057BB050010A7050071BB05000300000196
:104E140093BB0500B2BB050047E80100E1BB0500F8
:104E24000024F400005000400048E80100127A0019
:104E3400FF083D007F841E003F420F001FA10700B2
:104E44008FD0030048E8010090D00300002884407C
:104E5400114B05000000AD0B12BC050000093D001C
:104E640080841E0040420F0020A1070000258440DA
:104E74000123CAF800908AF85D30012384F85C307D
:104E84007B68196C4A1C0AD003F1440004F04DFD00
:104E9400743004D102215D4A5D4804F0E9FCFB68EA
:104EA400002B75D163630023A36304F1480204F16A
:104EB400380104F1340004F0E7FCBB686064002BA3
:104EC4006ED1E3630023236404F1500204F1400132
:104ED40004F13C0004F0D8FC0023E0642068236360
:104EE40048B183683BB10121083004F0E0FC236839
:104EF400186904F0E0FE4046FFF7A0FD00221346C7
:104F0400A06B834254D100231946256CA94256D183
:104F1400934238BF134626464FF4FA5202FB03F578
:104F240056F8203B4FF4004C1B6840F2E730B5FBC9
:104F3400F3F50021C8354FF47A720023E5FB0C0128
:104F4400FBF770FD02460B46304601F07BFF00285C
:104F54003CD001212F4A2E4804F08AFC4FF000096E
:104F64007868C4F8589001F00BFC84F85D90D8F888
:104F740010506FF07308C5F8308005F1200001F07F
:104F84003DFF85F85C90304601F084FF454621E002
:104F9400FB681B686363002B85D0FB685B6883E751
:104FA400BB681B68E363002B8CD0BB685B688AE733
:104FB400616B01EBC301496801330A44A1E7E06B6B
:104FC40000EBC1004068013103449FE7256B15F1F4
:104FD400740FC3D02368002B3FF438AE9A68002ABC
:104FE4003FF434AE998811F480567FF42FAE1869DB
:104FF40004F061FE20683146083004F058FC25E6D0
:10500400C960FFDE00239B60FBE700BF39BC0500DD
:1050140010A7050063BC050000F01F0240090DD075
:1050240001280DD1094B03EB8203D3F80002084A8F
:10503400024042EA8102C3F800227047054BF2E7BE
:105044000023803253F82230FFDE00BF0028844062
:10505400F0F0FCFF002584400123F0B587B08DF803
:105064000230022300248DF804306B4403930F466E
:1050740001AB0DF10301049305460291059401F07F
:1050840083F80C4B064698420FD13946284603AAAA
:1050940000F062FEB0420BD028469DF8031001F0E8
:1050A40067F86FF0040007B0F0BD6FF01200FAE784
:1050B4002046F8E70000AD0B0123834070B5DC43C4
:1050C4000B4AD2E8EF1F01EA0405C2E8E65F002EAE
:1050D400F7D14FF4803282400648C0F80823BFF36A
:1050E4005F8FBFF36F8F0B4214BF0120002070BD90
:1050F400C40A04200050014070B40E4922F07F46D7
:10510400D1E90034D01AC31844F10004C1E90034D1
:10511400A6F50013B3F5400F09D2074B1B681A0A12
:105124001B069C19054B42F10005C3E9004570BC00
:1051340002F05EBA80070420C80A0420880704200D
:10514400D9B101230D4A8340D2E8EFCF4CEA030CD6
:10515400C2E8E1CF0029F7D14FF48033084A8340F5
:10516400C2F80433074BD3E8AF3FC340DB0742BF69
:105174004FF40012044BC3F800217047C40A042002
:1051840000500140BC0A042000E100E0C3B2024820
:105194009B001844704700BF40510140024B00F58A
:1051A400A87053F820007047005001400D4B186858
:1051B400010A0006BFF35F8F0B4BD3F804351818B0
:1051C40041F10001B3F5801F0AD2084BD3E9002353
:1051D400904271EB030303D210F1807041F100019E
:1051E400704700BFC80A042000500140880704200B
:1051F4002DE9F04F85B016461F4604469DF840A0A1
:10520400FFF75AFF0190FFF7D1FFB04271EB07039C
:1052140052D23B4B301A67EB0101984271F1000105
:105224004DD2384B03EB0413D3E902239F4208BF4A
:10523400964258D04FF48038334908FA04F820468F
:1052440026F07F4BC1F8488304F097FB4FF0030925
:10525400584604F15005AD00ADB205F1804504F5A2
:10526400A87305F5A8350293029A20F07F4341F80C
:105274002230C1F84483D1F80435244AC01A0338D3
:1052840020F07F4090422ED9286868B1D1F80435C7
:10529400A3EB0B0020F07F40B0F5000F039322D95D
:1052A400204604F06AFB039BBAF1000F07D109EB17
:1052B400030009F10109D7E7BAF1000F09D06FF033
:1052C400150520460199FFF73BFF284605B0BDE8C8
:1052D400F08F01230E4AA340D2E8EF0F1843C2E82F
:1052E400E10F0029F8D107490E982301C8500F9BFC
:1052F40001EB04120025C2E902675360E1E700BF35
:10530400010080006007042000500140FDFF7F0081
:10531400BC0A04207FB500254FF0FF304FF0FF3169
:105324004FF480321C4C1D4B0226C4F80833C4F8D9
:1053340048331B4BC4F80855C3E90201C4F80423DD
:10534400C3E906014FF400334FF40012C4F80433E8
:10535400144B0121C4F804631520C3F880212A46A4
:10536400FEF70AF81520FDF7D7FF01230322A360F7
:1053740023600D4B28461A600C4B0D4A1E600D4BE2
:10538400CDE9015500930023FFF732FF3046FEF7C5
:105394002FFD284604B070BD0050014003000F00EB
:1053A4006007042000E100E0C40A0420C00A0420CD
:1053B400FFFF7F00FD5005002DE9F04F394B85B00C
:1053C400D3F8042392070BD5D3F8042142B1002269
:1053D400C3F80421344AD3F8043113680133136049
:1053E400324D0024A8464FF480362E4FD7F80433AC
:1053F40006FA04F919EA030F2ED00123A340DB4374
:105404002B49D1E8EF2F02EA0300C1E8EC0FBCF10D
:10541400000FF6D122FA04F3DB0703D4254B53F82B
:105424002430CBB1204604F0A8FAFFF7BFFE4FF0BA
:105434002002EFF3118382F31288BFF36F8F08EB1E
:10544400041CDCE902AB504571EB0B0102930AD258
:1054540083F31188BFF36F8F103514B105B0BDE825
:10546400F08F0124C2E70020D5E900134FF0FF328A
:1054740003934FF0FF3328600A48CCE90223C0F8B5
:105484004893204604F079FA029B83F31188BFF312
:105494006F8F0029E0D0039B524600935B468847F8
:1054A400DAE700BF00500140C80A04206007042066
:1054B400BC0A04204051014070B501240C4B18680B
:1054C40090B1B0FA80F0C0F11F0004FA00F1C943B2
:1054D400D3E8EF2F02EA0105C3E8E65F002EF7D117
:1054E400C240D207EBD570BD6FF00B00FBE700BFE5
:1054F400C00A04200123054A8340D2E8EF0F184371
:10550400C2E8E10F0029F8D1704700BFC00A0420A7
:1055140030B5431C124C85B005D08442A8BF044664
:10552400012CB8BF0124FFF741FE0E4B0C4DD3E90B
:105534000013401AB0F5000F0FD22218AA4228BF58
:105544002A46002052180849CDE90100009143F190
:105554000003FFF74DFE05B030BD2A46F1E700BF5A
:10556400FFFF7F0080070420FD50050008B5FFF70A
:105574001DFE024B1B68C01A08BD00BF8007042033
:1055840030B50468ACB1B4FA84F30122C3F11F034B
:10559400DBB29A4024EA0202D0E8EF5FA54204D1CC
:1055A400C0E8EC2FBCF1000FF6D1EAD102480B7031
:1055B40030BD0248FCE700BF0000AD0B0200AD0B9C
:1055C40010B50368CB40DB0710D401238B4002687D
:1055D40043EA0201D0E8EF4F944204D1C0E8EC1F43
:1055E400BCF1000FF6D1F2D1014810BD0148FCE72F
:1055F4000000AD0B0400AD0B014BC3F8040570476C
:1056040000700140014BC3F8080570470070014069
:1056140073B5032858D8DFE800F0021724310222BA
:10562400504BC3F808230122DA600022C3F8042196
:10563400D3F80431002401238DF80730032843D81C
:10564400DFE800F02944607C0122464B0DF1070499
:10565400C3F808235A600022C3F80021D3F80031AC
:10566400E9E74FF400723F4BC3F8082301225A6262
:105674000022C3F82421D3F82431DBE74FF48072ED
:10568400384BC3F808230122DA610022C3F8202131
:10569400D3F82031CEE742F21075324ED6F81834E2
:1056A40003F4803334B97BB1012004F08DF9013D5A
:1056B400F4D109E0D6F8182402F0030222701BB1D9
:1056C4009DF807000128F0D002B070BD42F21075B9
:1056D400244ED6F80C3403F480333CB9002BF3D0B9
:1056E400012004F071F9013DF3D1EDE7D6F80C2463
:1056F40002F001022270002BE6D09DF80700012879
:10570400EFD0E1E742F21075164ED6F85C3403F49C
:1057140080333CB9002BD7D0012004F055F9013D6A
:10572400F3D1D1E7D6F85C2402F001022270002BF9
:10573400CAD09DF807000128EFD0C5E742F21075E2
:10574400084ED6F85434DB03BED52CB9012004F03E
:105754003BF9013DF5D1B7E79DF807000128F6D0E4
:10576400B2E700BF00500040044B1A7922B901226D
:1057740018601A710248704702487047CC0A042026
:105784000000AD0B0C00AD0B08B5094B1B6833B121
:105794000520FDF7E3FD10B90520FDF7BDFD01224D
:1057A400044BC3F81825C3F81425C3F8802508BD95
:1057B400CC0A04200050004010B5032846D8DFE886
:1057C40000F01B02565000224FF480730121002088
:1057D40003F1804303F5A04318601C68012402F11F
:1057E400804202F5A0421460274A1268002A44D07D
:1057F400264BC3F8041329E0244BD3F81814D3F828
:105804001824C90311D502F00303022B05D0012B80
:1058140002D00020FFF7FCFE01231C4A0221C2F83B
:10582400183508224FF48273D1E7D3F81424D20731
:10583400F2D5D3F81C2402F00302013A012AE8D875
:10584400114A12681AB10222C3F8042310BDD3F816
:105854000421002AFBD00022C3F80421D3F8043128
:10586400F4E718224FF490734FF48071AFE72022CD
:105874004FF492734FF40071A9E71A68002AFCD020
:1058840018601B68E2E700BFCC0A04200050004007
:1058940010B5284BD3F8002152B10020C3F8000101
:1058A400D3F800210122C3F80823234B1B6898472F
:1058B400204BD3F8042182B10022C3F80421D3F889
:1058C4000421D3F81824D3F81824022102F0030287
:1058D400012A26D1C3F818159A60164BD3F8202153
:1058E40062B10022C3F82021D3F820214FF4807242
:1058F400C3F80823104B05201B6898470D4BD3F8B9
:105904002421AAB10022C3F82421D3F824214FF47E
:105914000072C3F80823084B0620BDE810401B683A
:105924001847C3F80813044B01201B689847D4E7B1
:1059340010BD00BF00500040CC0A042001460148BD
:10594400FFF71EBE300104200123044A83400146B0
:10595400C2F808350248FFF733BE00BF00700140AB
:1059640030010420036803F01F025B09026004D0C5
:10597400012B034818BF002070470248704700BF3E
:105984000028844000258440034A4309D35C00F086
:105994001F001844C0B27047A9BC050070B5054685
:1059A4000846FFF7F1FF42212A79174B01FB020257
:1059B400083233F81200C10525D584240026C0F32B
:1059C400432120F4F85023F812002A7904FB02340E
:1059D4000E3434F8020F10F4807F03D0C0F3432058
:1059E400814210D00136302EF3D18420002442436A
:1059F40002EBC1029C502A79BDE8704000FB0230E2
:105A04007830FFF7DDBD70BD34010420034611F08A
:105A1400010010B5CCB20BD1A207C4F340000DD5E0
:105A2400074A106A58601062003818BF012005E068
:105A340004490A6A1A600A62002AEDD010BD00BF48
:105A4400002884400025844010B504460846FFF72A
:105A54009BFF422303FB0400024B083033F8100081
:105A6400400B10BD3401042010B504460846FFF76E
:105A74008BFF422303FB0400034B083033F8100070
:105A8400C0F3400010BD00BF3401042010B504462B
:105A94000846FFF779FF422303FB0400034B083059
:105AA40033F81000C0F3401010BD00BF34010420CF
:105AB400F0B5054600200126044607468C420BD16A
:105AC400114BD3F87C2132B10022C3F87C21D3F8E6
